{
  "contractName": "StarNotary",
  "abi": [
    {
      "inputs": [],
      "stateMutability": "nonpayable",
      "type": "constructor"
    },
    {
      "anonymous": false,
      "inputs": [
        {
          "indexed": true,
          "internalType": "address",
          "name": "owner",
          "type": "address"
        },
        {
          "indexed": true,
          "internalType": "address",
          "name": "approved",
          "type": "address"
        },
        {
          "indexed": true,
          "internalType": "uint256",
          "name": "tokenId",
          "type": "uint256"
        }
      ],
      "name": "Approval",
      "type": "event"
    },
    {
      "anonymous": false,
      "inputs": [
        {
          "indexed": true,
          "internalType": "address",
          "name": "owner",
          "type": "address"
        },
        {
          "indexed": true,
          "internalType": "address",
          "name": "operator",
          "type": "address"
        },
        {
          "indexed": false,
          "internalType": "bool",
          "name": "approved",
          "type": "bool"
        }
      ],
      "name": "ApprovalForAll",
      "type": "event"
    },
    {
      "anonymous": false,
      "inputs": [
        {
          "indexed": true,
          "internalType": "address",
          "name": "from",
          "type": "address"
        },
        {
          "indexed": true,
          "internalType": "address",
          "name": "to",
          "type": "address"
        },
        {
          "indexed": true,
          "internalType": "uint256",
          "name": "tokenId",
          "type": "uint256"
        }
      ],
      "name": "Transfer",
      "type": "event"
    },
    {
      "inputs": [
        {
          "internalType": "address",
          "name": "to",
          "type": "address"
        },
        {
          "internalType": "uint256",
          "name": "tokenId",
          "type": "uint256"
        }
      ],
      "name": "approve",
      "outputs": [],
      "stateMutability": "nonpayable",
      "type": "function"
    },
    {
      "inputs": [
        {
          "internalType": "address",
          "name": "owner",
          "type": "address"
        }
      ],
      "name": "balanceOf",
      "outputs": [
        {
          "internalType": "uint256",
          "name": "",
          "type": "uint256"
        }
      ],
      "stateMutability": "view",
      "type": "function",
      "constant": true
    },
    {
      "inputs": [
        {
          "internalType": "uint256",
          "name": "tokenId",
          "type": "uint256"
        }
      ],
      "name": "getApproved",
      "outputs": [
        {
          "internalType": "address",
          "name": "",
          "type": "address"
        }
      ],
      "stateMutability": "view",
      "type": "function",
      "constant": true
    },
    {
      "inputs": [
        {
          "internalType": "address",
          "name": "owner",
          "type": "address"
        },
        {
          "internalType": "address",
          "name": "operator",
          "type": "address"
        }
      ],
      "name": "isApprovedForAll",
      "outputs": [
        {
          "internalType": "bool",
          "name": "",
          "type": "bool"
        }
      ],
      "stateMutability": "view",
      "type": "function",
      "constant": true
    },
    {
      "inputs": [],
      "name": "name",
      "outputs": [
        {
          "internalType": "string",
          "name": "",
          "type": "string"
        }
      ],
      "stateMutability": "view",
      "type": "function",
      "constant": true
    },
    {
      "inputs": [
        {
          "internalType": "uint256",
          "name": "tokenId",
          "type": "uint256"
        }
      ],
      "name": "ownerOf",
      "outputs": [
        {
          "internalType": "address",
          "name": "",
          "type": "address"
        }
      ],
      "stateMutability": "view",
      "type": "function",
      "constant": true
    },
    {
      "inputs": [
        {
          "internalType": "address",
          "name": "from",
          "type": "address"
        },
        {
          "internalType": "address",
          "name": "to",
          "type": "address"
        },
        {
          "internalType": "uint256",
          "name": "tokenId",
          "type": "uint256"
        }
      ],
      "name": "safeTransferFrom",
      "outputs": [],
      "stateMutability": "nonpayable",
      "type": "function"
    },
    {
      "inputs": [
        {
          "internalType": "address",
          "name": "from",
          "type": "address"
        },
        {
          "internalType": "address",
          "name": "to",
          "type": "address"
        },
        {
          "internalType": "uint256",
          "name": "tokenId",
          "type": "uint256"
        },
        {
          "internalType": "bytes",
          "name": "_data",
          "type": "bytes"
        }
      ],
      "name": "safeTransferFrom",
      "outputs": [],
      "stateMutability": "nonpayable",
      "type": "function"
    },
    {
      "inputs": [
        {
          "internalType": "address",
          "name": "operator",
          "type": "address"
        },
        {
          "internalType": "bool",
          "name": "approved",
          "type": "bool"
        }
      ],
      "name": "setApprovalForAll",
      "outputs": [],
      "stateMutability": "nonpayable",
      "type": "function"
    },
    {
      "inputs": [
        {
          "internalType": "uint256",
          "name": "",
          "type": "uint256"
        }
      ],
      "name": "starsForSale",
      "outputs": [
        {
          "internalType": "uint256",
          "name": "",
          "type": "uint256"
        }
      ],
      "stateMutability": "view",
      "type": "function",
      "constant": true
    },
    {
      "inputs": [
        {
          "internalType": "bytes4",
          "name": "interfaceId",
          "type": "bytes4"
        }
      ],
      "name": "supportsInterface",
      "outputs": [
        {
          "internalType": "bool",
          "name": "",
          "type": "bool"
        }
      ],
      "stateMutability": "view",
      "type": "function",
      "constant": true
    },
    {
      "inputs": [],
      "name": "symbol",
      "outputs": [
        {
          "internalType": "string",
          "name": "",
          "type": "string"
        }
      ],
      "stateMutability": "view",
      "type": "function",
      "constant": true
    },
    {
      "inputs": [
        {
          "internalType": "uint256",
          "name": "",
          "type": "uint256"
        }
      ],
      "name": "tokenIdToStarInfo",
      "outputs": [
        {
          "internalType": "string",
          "name": "name",
          "type": "string"
        }
      ],
      "stateMutability": "view",
      "type": "function",
      "constant": true
    },
    {
      "inputs": [
        {
          "internalType": "uint256",
          "name": "tokenId",
          "type": "uint256"
        }
      ],
      "name": "tokenURI",
      "outputs": [
        {
          "internalType": "string",
          "name": "",
          "type": "string"
        }
      ],
      "stateMutability": "view",
      "type": "function",
      "constant": true
    },
    {
      "inputs": [
        {
          "internalType": "address",
          "name": "from",
          "type": "address"
        },
        {
          "internalType": "address",
          "name": "to",
          "type": "address"
        },
        {
          "internalType": "uint256",
          "name": "tokenId",
          "type": "uint256"
        }
      ],
      "name": "transferFrom",
      "outputs": [],
      "stateMutability": "nonpayable",
      "type": "function"
    },
    {
      "inputs": [
        {
          "internalType": "string",
          "name": "_name",
          "type": "string"
        },
        {
          "internalType": "uint256",
          "name": "_tokenId",
          "type": "uint256"
        }
      ],
      "name": "createStar",
      "outputs": [],
      "stateMutability": "nonpayable",
      "type": "function"
    },
    {
      "inputs": [
        {
          "internalType": "uint256",
          "name": "_tokenId",
          "type": "uint256"
        },
        {
          "internalType": "uint256",
          "name": "_price",
          "type": "uint256"
        }
      ],
      "name": "putStarUpForSale",
      "outputs": [],
      "stateMutability": "nonpayable",
      "type": "function"
    },
    {
      "inputs": [
        {
          "internalType": "uint256",
          "name": "_tokenId",
          "type": "uint256"
        }
      ],
      "name": "buyStar",
      "outputs": [],
      "stateMutability": "payable",
      "type": "function",
      "payable": true
    },
    {
      "inputs": [
        {
          "internalType": "uint256",
          "name": "_tokenId",
          "type": "uint256"
        }
      ],
      "name": "lookUptokenIdToStarInfo",
      "outputs": [
        {
          "internalType": "string",
          "name": "",
          "type": "string"
        }
      ],
      "stateMutability": "view",
      "type": "function",
      "constant": true
    },
    {
      "inputs": [
        {
          "internalType": "uint256",
          "name": "_tokenId1",
          "type": "uint256"
        },
        {
          "internalType": "uint256",
          "name": "_tokenId2",
          "type": "uint256"
        }
      ],
      "name": "exchangeStars",
      "outputs": [],
      "stateMutability": "nonpayable",
      "type": "function"
    },
    {
      "inputs": [
        {
          "internalType": "address",
          "name": "_to1",
          "type": "address"
        },
        {
          "internalType": "uint256",
          "name": "_tokenId",
          "type": "uint256"
        }
      ],
      "name": "transferStar",
      "outputs": [],
      "stateMutability": "nonpayable",
      "type": "function"
    }
  ],
  "bytecode": "0x60806040523480156200001157600080fd5b506040518060400160405280601181526020017f4d6174742773205374617220546f6b656e0000000000000000000000000000008152506040518060400160405280600381526020017f4d53540000000000000000000000000000000000000000000000000000000000815250816000908051906020019062000096929190620000b8565b508060019080519060200190620000af929190620000b8565b505050620001cd565b828054620000c69062000168565b90600052602060002090601f016020900481019282620000ea576000855562000136565b82601f106200010557805160ff191683800117855562000136565b8280016001018555821562000136579182015b828111156200013557825182559160200191906001019062000118565b5b50905062000145919062000149565b5090565b5b80821115620001645760008160009055506001016200014a565b5090565b600060028204905060018216806200018157607f821691505b602082108114156200019857620001976200019e565b5b50919050565b7f4e487b7100000000000000000000000000000000000000000000000000000000600052602260045260246000fd5b6131f880620001dd6000396000f3fe60806040526004361061012a5760003560e01c806342842e0e116100ab578063a22cb4651161006f578063a22cb46514610405578063b88d4fde1461042e578063c87b56dd14610457578063d7830ccb14610494578063e7152a5c146104d1578063e985e9c5146104fa5761012a565b806342842e0e1461030e5780636352211e1461033757806370a082311461037457806395d89b41146103b15780639697c0a1146103dc5761012a565b806315e0afa5116100f257806315e0afa51461023a5780631967fd981461026357806323b872dd146102a05780632f1c34ef146102c9578063316a4361146102e55761012a565b806301ffc9a71461012f5780630564b1301461016c57806306fdde03146101a9578063081812fc146101d4578063095ea7b314610211575b600080fd5b34801561013b57600080fd5b506101566004803603810190610151919061217c565b610537565b6040516101639190612ad0565b60405180910390f35b34801561017857600080fd5b50610193600480360381019061018e9190612222565b610619565b6040516101a09190612d8d565b60405180910390f35b3480156101b557600080fd5b506101be610631565b6040516101cb9190612aeb565b60405180910390f35b3480156101e057600080fd5b506101fb60048036038101906101f69190612222565b6106c3565b6040516102089190612a69565b60405180910390f35b34801561021d57600080fd5b5061023860048036038101906102339190612140565b610748565b005b34801561024657600080fd5b50610261600480360381019061025c919061224b565b610860565b005b34801561026f57600080fd5b5061028a60048036038101906102859190612222565b61094a565b6040516102979190612aeb565b60405180910390f35b3480156102ac57600080fd5b506102c760048036038101906102c2919061203a565b6109f0565b005b6102e360048036038101906102de9190612222565b610a50565b005b3480156102f157600080fd5b5061030c6004803603810190610307919061224b565b610bcd565b005b34801561031a57600080fd5b506103356004803603810190610330919061203a565b610c5f565b005b34801561034357600080fd5b5061035e60048036038101906103599190612222565b610c7f565b60405161036b9190612a69565b60405180910390f35b34801561038057600080fd5b5061039b60048036038101906103969190611fd5565b610d31565b6040516103a89190612d8d565b60405180910390f35b3480156103bd57600080fd5b506103c6610de9565b6040516103d39190612aeb565b60405180910390f35b3480156103e857600080fd5b5061040360048036038101906103fe91906121ce565b610e7b565b005b34801561041157600080fd5b5061042c60048036038101906104279190612104565b610ed1565b005b34801561043a57600080fd5b5061045560048036038101906104509190612089565b611052565b005b34801561046357600080fd5b5061047e60048036038101906104799190612222565b6110b4565b60405161048b9190612aeb565b60405180910390f35b3480156104a057600080fd5b506104bb60048036038101906104b69190612222565b61115b565b6040516104c89190612aeb565b60405180910390f35b3480156104dd57600080fd5b506104f860048036038101906104f39190612140565b611268565b005b34801561050657600080fd5b50610521600480360381019061051c9190611ffe565b6112ed565b60405161052e9190612ad0565b60405180910390f35b60007f80ac58cd000000000000000000000000000000000000000000000000000000007bffffffffffffffffffffffffffffffffffffffffffffffffffffffff1916827bffffffffffffffffffffffffffffffffffffffffffffffffffffffff1916148061060257507f5b5e139f000000000000000000000000000000000000000000000000000000007bffffffffffffffffffffffffffffffffffffffffffffffffffffffff1916827bffffffffffffffffffffffffffffffffffffffffffffffffffffffff1916145b80610612575061061182611381565b5b9050919050565b60076020528060005260406000206000915090505481565b60606000805461064090612fed565b80601f016020809104026020016040519081016040528092919081815260200182805461066c90612fed565b80156106b95780601f1061068e576101008083540402835291602001916106b9565b820191906000526020600020905b81548152906001019060200180831161069c57829003601f168201915b5050505050905090565b60006106ce826113eb565b61070d576040517f08c379a000000000000000000000000000000000000000000000000000000000815260040161070490612c4d565b60405180910390fd5b6004600083815260200190815260200160002060009054906101000a900473ffffffffffffffffffffffffffffffffffffffff169050919050565b600061075382610c7f565b90508073ffffffffffffffffffffffffffffffffffffffff168373ffffffffffffffffffffffffffffffffffffffff1614156107c4576040517f08c379a00000000000000000000000000000000000000000000000000000000081526004016107bb90612ced565b60405180910390fd5b8073ffffffffffffffffffffffffffffffffffffffff166107e3611457565b73ffffffffffffffffffffffffffffffffffffffff16148061081257506108118161080c611457565b6112ed565b5b610851576040517f08c379a000000000000000000000000000000000000000000000000000000000815260040161084890612bcd565b60405180910390fd5b61085b838361145f565b505050565b3373ffffffffffffffffffffffffffffffffffffffff1661088083610c7f565b73ffffffffffffffffffffffffffffffffffffffff1614806108d557503373ffffffffffffffffffffffffffffffffffffffff166108bd82610c7f565b73ffffffffffffffffffffffffffffffffffffffff16145b610914576040517f08c379a000000000000000000000000000000000000000000000000000000000815260040161090b90612d6d565b60405180910390fd5b600061091f83610c7f565b9050600061092c83610c7f565b90506109398282866109f0565b6109448183856109f0565b50505050565b600660205280600052604060002060009150905080600001805461096d90612fed565b80601f016020809104026020016040519081016040528092919081815260200182805461099990612fed565b80156109e65780601f106109bb576101008083540402835291602001916109e6565b820191906000526020600020905b8154815290600101906020018083116109c957829003601f168201915b5050505050905081565b610a016109fb611457565b82611518565b610a40576040517f08c379a0000000000000000000000000000000000000000000000000000000008152600401610a3790612d2d565b60405180910390fd5b610a4b8383836115f6565b505050565b6000600760008381526020019081526020016000205411610aa6576040517f08c379a0000000000000000000000000000000000000000000000000000000008152600401610a9d90612d0d565b60405180910390fd5b6000600760008381526020019081526020016000205490506000610ac983610c7f565b9050813411610b0d576040517f08c379a0000000000000000000000000000000000000000000000000000000008152600401610b0490612cad565b60405180910390fd5b610b188133856109f0565b6000610b2382611852565b90508073ffffffffffffffffffffffffffffffffffffffff166108fc849081150290604051600060405180830381858888f19350505050158015610b6b573d6000803e3d6000fd5b5082341115610bc7573373ffffffffffffffffffffffffffffffffffffffff166108fc8434610b9a9190612f03565b9081150290604051600060405180830381858888f19350505050158015610bc5573d6000803e3d6000fd5b505b50505050565b3373ffffffffffffffffffffffffffffffffffffffff16610bed83610c7f565b73ffffffffffffffffffffffffffffffffffffffff1614610c43576040517f08c379a0000000000000000000000000000000000000000000000000000000008152600401610c3a90612b0d565b60405180910390fd5b8060076000848152602001908152602001600020819055505050565b610c7a83838360405180602001604052806000815250611052565b505050565b6000806002600084815260200190815260200160002060009054906101000a900473ffffffffffffffffffffffffffffffffffffffff169050600073ffffffffffffffffffffffffffffffffffffffff168173ffffffffffffffffffffffffffffffffffffffff161415610d28576040517f08c379a0000000000000000000000000000000000000000000000000000000008152600401610d1f90612c0d565b60405180910390fd5b80915050919050565b60008073ffffffffffffffffffffffffffffffffffffffff168273ffffffffffffffffffffffffffffffffffffffff161415610da2576040517f08c379a0000000000000000000000000000000000000000000000000000000008152600401610d9990612bed565b60405180910390fd5b600360008373ffffffffffffffffffffffffffffffffffffffff1673ffffffffffffffffffffffffffffffffffffffff168152602001908152602001600020549050919050565b606060018054610df890612fed565b80601f0160208091040260200160405190810160405280929190818152602001828054610e2490612fed565b8015610e715780601f10610e4657610100808354040283529160200191610e71565b820191906000526020600020905b815481529060010190602001808311610e5457829003601f168201915b5050505050905090565b6000604051806020016040528084815250905080600660008481526020019081526020016000206000820151816000019080519060200190610ebe929190611df9565b50905050610ecc338361185c565b505050565b610ed9611457565b73ffffffffffffffffffffffffffffffffffffffff168273ffffffffffffffffffffffffffffffffffffffff161415610f47576040517f08c379a0000000000000000000000000000000000000000000000000000000008152600401610f3e90612b8d565b60405180910390fd5b8060056000610f54611457565b73ffffffffffffffffffffffffffffffffffffffff1673ffffffffffffffffffffffffffffffffffffffff16815260200190815260200160002060008473ffffffffffffffffffffffffffffffffffffffff1673ffffffffffffffffffffffffffffffffffffffff16815260200190815260200160002060006101000a81548160ff0219169083151502179055508173ffffffffffffffffffffffffffffffffffffffff16611001611457565b73ffffffffffffffffffffffffffffffffffffffff167f17307eab39ab6107e8899845ad3d59bd9653f200f220920489ca2b5937696c31836040516110469190612ad0565b60405180910390a35050565b61106361105d611457565b83611518565b6110a2576040517f08c379a000000000000000000000000000000000000000000000000000000000815260040161109990612d2d565b60405180910390fd5b6110ae84848484611a2a565b50505050565b60606110bf826113eb565b6110fe576040517f08c379a00000000000000000000000000000000000000000000000000000000081526004016110f590612c8d565b60405180910390fd5b6000611108611a86565b905060008151116111285760405180602001604052806000815250611153565b8061113284611a9d565b604051602001611143929190612a45565b6040516020818303038152906040525b915050919050565b6060600060066000848152602001908152602001600020600001805461118090612fed565b9050116111c2576040517f08c379a00000000000000000000000000000000000000000000000000000000081526004016111b990612d4d565b60405180910390fd5b6006600083815260200190815260200160002060000180546111e390612fed565b80601f016020809104026020016040519081016040528092919081815260200182805461120f90612fed565b801561125c5780601f106112315761010080835404028352916020019161125c565b820191906000526020600020905b81548152906001019060200180831161123f57829003601f168201915b50505050509050919050565b3373ffffffffffffffffffffffffffffffffffffffff1661128882610c7f565b73ffffffffffffffffffffffffffffffffffffffff16146112de576040517f08c379a00000000000000000000000000000000000000000000000000000000081526004016112d590612ccd565b60405180910390fd5b6112e93383836109f0565b5050565b6000600560008473ffffffffffffffffffffffffffffffffffffffff1673ffffffffffffffffffffffffffffffffffffffff16815260200190815260200160002060008373ffffffffffffffffffffffffffffffffffffffff1673ffffffffffffffffffffffffffffffffffffffff16815260200190815260200160002060009054906101000a900460ff16905092915050565b60007f01ffc9a7000000000000000000000000000000000000000000000000000000007bffffffffffffffffffffffffffffffffffffffffffffffffffffffff1916827bffffffffffffffffffffffffffffffffffffffffffffffffffffffff1916149050919050565b60008073ffffffffffffffffffffffffffffffffffffffff166002600084815260200190815260200160002060009054906101000a900473ffffffffffffffffffffffffffffffffffffffff1673ffffffffffffffffffffffffffffffffffffffff1614159050919050565b600033905090565b816004600083815260200190815260200160002060006101000a81548173ffffffffffffffffffffffffffffffffffffffff021916908373ffffffffffffffffffffffffffffffffffffffff160217905550808273ffffffffffffffffffffffffffffffffffffffff166114d283610c7f565b73ffffffffffffffffffffffffffffffffffffffff167f8c5be1e5ebec7d5bd14f71427d1e84f3dd0314c0f7b2291e5b200ac8c7c3b92560405160405180910390a45050565b6000611523826113eb565b611562576040517f08c379a000000000000000000000000000000000000000000000000000000000815260040161155990612bad565b60405180910390fd5b600061156d83610c7f565b90508073ffffffffffffffffffffffffffffffffffffffff168473ffffffffffffffffffffffffffffffffffffffff1614806115dc57508373ffffffffffffffffffffffffffffffffffffffff166115c4846106c3565b73ffffffffffffffffffffffffffffffffffffffff16145b806115ed57506115ec81856112ed565b5b91505092915050565b8273ffffffffffffffffffffffffffffffffffffffff1661161682610c7f565b73ffffffffffffffffffffffffffffffffffffffff161461166c576040517f08c379a000000000000000000000000000000000000000000000000000000000815260040161166390612c6d565b60405180910390fd5b600073ffffffffffffffffffffffffffffffffffffffff168273ffffffffffffffffffffffffffffffffffffffff1614156116dc576040517f08c379a00000000000000000000000000000000000000000000000000000000081526004016116d390612b6d565b60405180910390fd5b6116e7838383611c4a565b6116f260008261145f565b6001600360008573ffffffffffffffffffffffffffffffffffffffff1673ffffffffffffffffffffffffffffffffffffffff16815260200190815260200160002060008282546117429190612f03565b925050819055506001600360008473ffffffffffffffffffffffffffffffffffffffff1673ffffffffffffffffffffffffffffffffffffffff16815260200190815260200160002060008282546117999190612e7c565b92505081905550816002600083815260200190815260200160002060006101000a81548173ffffffffffffffffffffffffffffffffffffffff021916908373ffffffffffffffffffffffffffffffffffffffff160217905550808273ffffffffffffffffffffffffffffffffffffffff168473ffffffffffffffffffffffffffffffffffffffff167fddf252ad1be2c89b69c2b068fc378daa952ba7f163c4a11628f55a4df523b3ef60405160405180910390a4505050565b6000819050919050565b600073ffffffffffffffffffffffffffffffffffffffff168273ffffffffffffffffffffffffffffffffffffffff1614156118cc576040517f08c379a00000000000000000000000000000000000000000000000000000000081526004016118c390612c2d565b60405180910390fd5b6118d5816113eb565b15611915576040517f08c379a000000000000000000000000000000000000000000000000000000000815260040161190c90612b4d565b60405180910390fd5b61192160008383611c4a565b6001600360008473ffffffffffffffffffffffffffffffffffffffff1673ffffffffffffffffffffffffffffffffffffffff16815260200190815260200160002060008282546119719190612e7c565b92505081905550816002600083815260200190815260200160002060006101000a81548173ffffffffffffffffffffffffffffffffffffffff021916908373ffffffffffffffffffffffffffffffffffffffff160217905550808273ffffffffffffffffffffffffffffffffffffffff16600073ffffffffffffffffffffffffffffffffffffffff167fddf252ad1be2c89b69c2b068fc378daa952ba7f163c4a11628f55a4df523b3ef60405160405180910390a45050565b611a358484846115f6565b611a4184848484611c4f565b611a80576040517f08c379a0000000000000000000000000000000000000000000000000000000008152600401611a7790612b2d565b60405180910390fd5b50505050565b606060405180602001604052806000815250905090565b60606000821415611ae5576040518060400160405280600181526020017f30000000000000000000000000000000000000000000000000000000000000008152509050611c45565b600082905060005b60008214611b17578080611b009061301f565b915050600a82611b109190612ed2565b9150611aed565b60008167ffffffffffffffff811115611b59577f4e487b7100000000000000000000000000000000000000000000000000000000600052604160045260246000fd5b6040519080825280601f01601f191660200182016040528015611b8b5781602001600182028036833780820191505090505b5090505b60008514611c3e57600182611ba49190612f03565b9150600a85611bb39190613068565b6030611bbf9190612e7c565b60f81b818381518110611bfb577f4e487b7100000000000000000000000000000000000000000000000000000000600052603260045260246000fd5b60200101907effffffffffffffffffffffffffffffffffffffffffffffffffffffffffffff1916908160001a905350600a85611c379190612ed2565b9450611b8f565b8093505050505b919050565b505050565b6000611c708473ffffffffffffffffffffffffffffffffffffffff16611de6565b15611dd9578373ffffffffffffffffffffffffffffffffffffffff1663150b7a02611c99611457565b8786866040518563ffffffff1660e01b8152600401611cbb9493929190612a84565b602060405180830381600087803b158015611cd557600080fd5b505af1925050508015611d0657506040513d601f19601f82011682018060405250810190611d0391906121a5565b60015b611d89573d8060008114611d36576040519150601f19603f3d011682016040523d82523d6000602084013e611d3b565b606091505b50600081511415611d81576040517f08c379a0000000000000000000000000000000000000000000000000000000008152600401611d7890612b2d565b60405180910390fd5b805181602001fd5b63150b7a0260e01b7bffffffffffffffffffffffffffffffffffffffffffffffffffffffff1916817bffffffffffffffffffffffffffffffffffffffffffffffffffffffff191614915050611dde565b600190505b949350505050565b600080823b905060008111915050919050565b828054611e0590612fed565b90600052602060002090601f016020900481019282611e275760008555611e6e565b82601f10611e4057805160ff1916838001178555611e6e565b82800160010185558215611e6e579182015b82811115611e6d578251825591602001919060010190611e52565b5b509050611e7b9190611e7f565b5090565b5b80821115611e98576000816000905550600101611e80565b5090565b6000611eaf611eaa84612dd9565b612da8565b905082815260208101848484011115611ec757600080fd5b611ed2848285612fab565b509392505050565b6000611eed611ee884612e09565b612da8565b905082815260208101848484011115611f0557600080fd5b611f10848285612fab565b509392505050565b600081359050611f2781613166565b92915050565b600081359050611f3c8161317d565b92915050565b600081359050611f5181613194565b92915050565b600081519050611f6681613194565b92915050565b600082601f830112611f7d57600080fd5b8135611f8d848260208601611e9c565b91505092915050565b600082601f830112611fa757600080fd5b8135611fb7848260208601611eda565b91505092915050565b600081359050611fcf816131ab565b92915050565b600060208284031215611fe757600080fd5b6000611ff584828501611f18565b91505092915050565b6000806040838503121561201157600080fd5b600061201f85828601611f18565b925050602061203085828601611f18565b9150509250929050565b60008060006060848603121561204f57600080fd5b600061205d86828701611f18565b935050602061206e86828701611f18565b925050604061207f86828701611fc0565b9150509250925092565b6000806000806080858703121561209f57600080fd5b60006120ad87828801611f18565b94505060206120be87828801611f18565b93505060406120cf87828801611fc0565b925050606085013567ffffffffffffffff8111156120ec57600080fd5b6120f887828801611f6c565b91505092959194509250565b6000806040838503121561211757600080fd5b600061212585828601611f18565b925050602061213685828601611f2d565b9150509250929050565b6000806040838503121561215357600080fd5b600061216185828601611f18565b925050602061217285828601611fc0565b9150509250929050565b60006020828403121561218e57600080fd5b600061219c84828501611f42565b91505092915050565b6000602082840312156121b757600080fd5b60006121c584828501611f57565b91505092915050565b600080604083850312156121e157600080fd5b600083013567ffffffffffffffff8111156121fb57600080fd5b61220785828601611f96565b925050602061221885828601611fc0565b9150509250929050565b60006020828403121561223457600080fd5b600061224284828501611fc0565b91505092915050565b6000806040838503121561225e57600080fd5b600061226c85828601611fc0565b925050602061227d85828601611fc0565b9150509250929050565b61229081612f37565b82525050565b61229f81612f49565b82525050565b60006122b082612e39565b6122ba8185612e4f565b93506122ca818560208601612fba565b6122d381613155565b840191505092915050565b60006122e982612e44565b6122f38185612e60565b9350612303818560208601612fba565b61230c81613155565b840191505092915050565b600061232282612e44565b61232c8185612e71565b935061233c818560208601612fba565b80840191505092915050565b6000612355602783612e60565b91507f596f752063616e27742073616c6520746865205374617220796f7520646f6e2760008301527f74206f776e6564000000000000000000000000000000000000000000000000006020830152604082019050919050565b60006123bb603283612e60565b91507f4552433732313a207472616e7366657220746f206e6f6e20455243373231526560008301527f63656976657220696d706c656d656e74657200000000000000000000000000006020830152604082019050919050565b6000612421601c83612e60565b91507f4552433732313a20746f6b656e20616c7265616479206d696e746564000000006000830152602082019050919050565b6000612461602483612e60565b91507f4552433732313a207472616e7366657220746f20746865207a65726f2061646460008301527f72657373000000000000000000000000000000000000000000000000000000006020830152604082019050919050565b60006124c7601983612e60565b91507f4552433732313a20617070726f766520746f2063616c6c6572000000000000006000830152602082019050919050565b6000612507602c83612e60565b91507f4552433732313a206f70657261746f7220717565727920666f72206e6f6e657860008301527f697374656e7420746f6b656e00000000000000000000000000000000000000006020830152604082019050919050565b600061256d603883612e60565b91507f4552433732313a20617070726f76652063616c6c6572206973206e6f74206f7760008301527f6e6572206e6f7220617070726f76656420666f7220616c6c00000000000000006020830152604082019050919050565b60006125d3602a83612e60565b91507f4552433732313a2062616c616e636520717565727920666f7220746865207a6560008301527f726f2061646472657373000000000000000000000000000000000000000000006020830152604082019050919050565b6000612639602983612e60565b91507f4552433732313a206f776e657220717565727920666f72206e6f6e657869737460008301527f656e7420746f6b656e00000000000000000000000000000000000000000000006020830152604082019050919050565b600061269f602083612e60565b91507f4552433732313a206d696e7420746f20746865207a65726f20616464726573736000830152602082019050919050565b60006126df602c83612e60565b91507f4552433732313a20617070726f76656420717565727920666f72206e6f6e657860008301527f697374656e7420746f6b656e00000000000000000000000000000000000000006020830152604082019050919050565b6000612745602983612e60565b91507f4552433732313a207472616e73666572206f6620746f6b656e2074686174206960008301527f73206e6f74206f776e00000000000000000000000000000000000000000000006020830152604082019050919050565b60006127ab602f83612e60565b91507f4552433732314d657461646174613a2055524920717565727920666f72206e6f60008301527f6e6578697374656e7420746f6b656e00000000000000000000000000000000006020830152604082019050919050565b6000612811601d83612e60565b91507f596f75206e65656420746f206861766520656e6f7567682045746865720000006000830152602082019050919050565b6000612851601783612e60565b91507f53656e646572206973206e6f7420746865206f776e65720000000000000000006000830152602082019050919050565b6000612891602183612e60565b91507f4552433732313a20617070726f76616c20746f2063757272656e74206f776e6560008301527f72000000000000000000000000000000000000000000000000000000000000006020830152604082019050919050565b60006128f7601e83612e60565b91507f54686520537461722073686f756c6420626520757020666f722073616c6500006000830152602082019050919050565b6000612937603183612e60565b91507f4552433732313a207472616e736665722063616c6c6572206973206e6f74206f60008301527f776e6572206e6f7220617070726f7665640000000000000000000000000000006020830152604082019050919050565b600061299d601983612e60565b91507f5374617220646f6573206e6f7420686176652061206e616d65000000000000006000830152602082019050919050565b60006129dd602283612e60565b91507f53656e646572206973206e6f74206f776e6572206f662065697468657220737460008301527f61720000000000000000000000000000000000000000000000000000000000006020830152604082019050919050565b612a3f81612fa1565b82525050565b6000612a518285612317565b9150612a5d8284612317565b91508190509392505050565b6000602082019050612a7e6000830184612287565b92915050565b6000608082019050612a996000830187612287565b612aa66020830186612287565b612ab36040830185612a36565b8181036060830152612ac581846122a5565b905095945050505050565b6000602082019050612ae56000830184612296565b92915050565b60006020820190508181036000830152612b0581846122de565b905092915050565b60006020820190508181036000830152612b2681612348565b9050919050565b60006020820190508181036000830152612b46816123ae565b9050919050565b60006020820190508181036000830152612b6681612414565b9050919050565b60006020820190508181036000830152612b8681612454565b9050919050565b60006020820190508181036000830152612ba6816124ba565b9050919050565b60006020820190508181036000830152612bc6816124fa565b9050919050565b60006020820190508181036000830152612be681612560565b9050919050565b60006020820190508181036000830152612c06816125c6565b9050919050565b60006020820190508181036000830152612c268161262c565b9050919050565b60006020820190508181036000830152612c4681612692565b9050919050565b60006020820190508181036000830152612c66816126d2565b9050919050565b60006020820190508181036000830152612c8681612738565b9050919050565b60006020820190508181036000830152612ca68161279e565b9050919050565b60006020820190508181036000830152612cc681612804565b9050919050565b60006020820190508181036000830152612ce681612844565b9050919050565b60006020820190508181036000830152612d0681612884565b9050919050565b60006020820190508181036000830152612d26816128ea565b9050919050565b60006020820190508181036000830152612d468161292a565b9050919050565b60006020820190508181036000830152612d6681612990565b9050919050565b60006020820190508181036000830152612d86816129d0565b9050919050565b6000602082019050612da26000830184612a36565b92915050565b6000604051905081810181811067ffffffffffffffff82111715612dcf57612dce613126565b5b8060405250919050565b600067ffffffffffffffff821115612df457612df3613126565b5b601f19601f8301169050602081019050919050565b600067ffffffffffffffff821115612e2457612e23613126565b5b601f19601f8301169050602081019050919050565b600081519050919050565b600081519050919050565b600082825260208201905092915050565b600082825260208201905092915050565b600081905092915050565b6000612e8782612fa1565b9150612e9283612fa1565b9250827fffffffffffffffffffffffffffffffffffffffffffffffffffffffffffffffff03821115612ec757612ec6613099565b5b828201905092915050565b6000612edd82612fa1565b9150612ee883612fa1565b925082612ef857612ef76130c8565b5b828204905092915050565b6000612f0e82612fa1565b9150612f1983612fa1565b925082821015612f2c57612f2b613099565b5b828203905092915050565b6000612f4282612f81565b9050919050565b60008115159050919050565b60007fffffffff0000000000000000000000000000000000000000000000000000000082169050919050565b600073ffffffffffffffffffffffffffffffffffffffff82169050919050565b6000819050919050565b82818337600083830152505050565b60005b83811015612fd8578082015181840152602081019050612fbd565b83811115612fe7576000848401525b50505050565b6000600282049050600182168061300557607f821691505b60208210811415613019576130186130f7565b5b50919050565b600061302a82612fa1565b91507fffffffffffffffffffffffffffffffffffffffffffffffffffffffffffffffff82141561305d5761305c613099565b5b600182019050919050565b600061307382612fa1565b915061307e83612fa1565b92508261308e5761308d6130c8565b5b828206905092915050565b7f4e487b7100000000000000000000000000000000000000000000000000000000600052601160045260246000fd5b7f4e487b7100000000000000000000000000000000000000000000000000000000600052601260045260246000fd5b7f4e487b7100000000000000000000000000000000000000000000000000000000600052602260045260246000fd5b7f4e487b7100000000000000000000000000000000000000000000000000000000600052604160045260246000fd5b6000601f19601f8301169050919050565b61316f81612f37565b811461317a57600080fd5b50565b61318681612f49565b811461319157600080fd5b50565b61319d81612f55565b81146131a857600080fd5b50565b6131b481612fa1565b81146131bf57600080fd5b5056fea264697066735822122055bbc794aaeda4210c347fe0c08da5cdc83c0bcc391a22af59d2d156594288af64736f6c63430008000033",
  "immutableReferences": {},
  "source": "pragma solidity >=0.4.24;\n\n//Importing openzeppelin-solidity ERC-721 implemented Standard\nimport \"../node_modules/openzeppelin-solidity/contracts/token/ERC721/ERC721.sol\";\n\n// StarNotary Contract declaration inheritance the ERC721 openzeppelin implementation\ncontract StarNotary is ERC721 {\n    // Star data\n    struct Star {\n        string name;\n    }\n\n    // Implement Task 1 Add a name and symbol properties\n    // name: Is a short name to your token\n    // symbol: Is a short string like 'USD' -> 'American Dollar'\n    constructor() ERC721(\"Matt's Star Token\", \"MST\") { }\n\n    // mapping the Star with the Owner Address\n    mapping(uint256 => Star) public tokenIdToStarInfo;\n    // mapping the TokenId and price\n    mapping(uint256 => uint256) public starsForSale;\n\n    \n    // Create Star using the Struct\n    function createStar(string memory _name, uint256 _tokenId) public { // Passing the name and tokenId as a parameters\n        Star memory newStar = Star(_name); // Star is an struct so we are creating a new Star\n        tokenIdToStarInfo[_tokenId] = newStar; // Creating in memory the Star -> tokenId mapping\n        _mint(msg.sender, _tokenId); // _mint assign the the star with _tokenId to the sender address (ownership)\n    }\n\n    // Putting an Star for sale (Adding the star tokenid into the mapping starsForSale, first verify that the sender is the owner)\n    function putStarUpForSale(uint256 _tokenId, uint256 _price) public {\n        require(ownerOf(_tokenId) == msg.sender, \"You can't sale the Star you don't owned\");\n        starsForSale[_tokenId] = _price;\n    }\n\n\n    // Function that allows you to convert an address into a payable address\n    function _make_payable(address x) internal pure returns (address payable) {\n        return payable(x);\n    }\n\n    function buyStar(uint256 _tokenId) public  payable {\n        require(starsForSale[_tokenId] > 0, \"The Star should be up for sale\");\n        uint256 starCost = starsForSale[_tokenId];\n        address ownerAddress = ownerOf(_tokenId);\n        require(msg.value > starCost, \"You need to have enough Ether\");\n        transferFrom(ownerAddress, msg.sender, _tokenId); // We can't use _addTokenTo or_removeTokenFrom functions, now we have to use _transferFrom\n        address payable ownerAddressPayable = _make_payable(ownerAddress); // We need to make this conversion to be able to use transfer() function to transfer ethers\n        ownerAddressPayable.transfer(starCost);\n        if(msg.value > starCost) {\n            payable(msg.sender).transfer(msg.value - starCost);\n        }\n    }\n\n    // Implement Task 1 lookUptokenIdToStarInfo\n    function lookUptokenIdToStarInfo(uint _tokenId) public view returns (string memory) {\n        // Need to handle if the star does not have a name\n        require(bytes(tokenIdToStarInfo[_tokenId].name).length > 0, \"Star does not have a name\");\n\n        //1. You should return the Star saved in tokenIdToStarInfo mapping\n        return tokenIdToStarInfo[_tokenId].name;\n    }\n\n    // Implement Task 1 Exchange Stars function\n    function exchangeStars(uint256 _tokenId1, uint256 _tokenId2) public {\n        //1. Passing to star tokenId you will need to check if the owner of _tokenId1 or _tokenId2 is the sender\n        require(ownerOf(_tokenId1) == msg.sender || ownerOf(_tokenId2) == msg.sender, \"Sender is not owner of either star\");\n\n        //2. You don't have to check for the price of the token (star)\n        //3. Get the owner of the two tokens (ownerOf(_tokenId1), ownerOf(_tokenId1)\n        address tokenId1Owner = ownerOf(_tokenId1);\n        address tokenId2Owner = ownerOf(_tokenId2);\n\n        //4. Use _transferFrom function to exchange the tokens.\n        transferFrom(tokenId1Owner, tokenId2Owner, _tokenId1);\n        transferFrom(tokenId2Owner, tokenId1Owner, _tokenId2);\n    }\n\n    // Implement Task 1 Transfer Stars\n    function transferStar(address _to1, uint256 _tokenId) public {\n        //1. Check if the sender is the ownerOf(_tokenId)\n        require(ownerOf(_tokenId) == msg.sender, \"Sender is not the owner\");\n\n        //2. Use the transferFrom(from, to, tokenId); function to transfer the Star\n        transferFrom(msg.sender, _to1, _tokenId);\n    }\n\n}",
  "sourcePath": "/Users/mattmiller/Sites/udacity-truffle/starNotaryv3/contracts/StarNotary.sol",
  "compiler": {
    "name": "solc",
    "version": "0.8.0+commit.c7dfd78e.Emscripten.clang"
  },
  "schemaVersion": "3.4.3",
  "updatedAt": "2021-08-26T07:58:08.344Z",
  "networkType": "ethereum",
  "devdoc": {
    "kind": "dev",
    "methods": {
      "approve(address,uint256)": {
        "details": "See {IERC721-approve}."
      },
      "balanceOf(address)": {
        "details": "See {IERC721-balanceOf}."
      },
      "getApproved(uint256)": {
        "details": "See {IERC721-getApproved}."
      },
      "isApprovedForAll(address,address)": {
        "details": "See {IERC721-isApprovedForAll}."
      },
      "name()": {
        "details": "See {IERC721Metadata-name}."
      },
      "ownerOf(uint256)": {
        "details": "See {IERC721-ownerOf}."
      },
      "safeTransferFrom(address,address,uint256)": {
        "details": "See {IERC721-safeTransferFrom}."
      },
      "safeTransferFrom(address,address,uint256,bytes)": {
        "details": "See {IERC721-safeTransferFrom}."
      },
      "setApprovalForAll(address,bool)": {
        "details": "See {IERC721-setApprovalForAll}."
      },
      "supportsInterface(bytes4)": {
        "details": "See {IERC165-supportsInterface}."
      },
      "symbol()": {
        "details": "See {IERC721Metadata-symbol}."
      },
      "tokenURI(uint256)": {
        "details": "See {IERC721Metadata-tokenURI}."
      },
      "transferFrom(address,address,uint256)": {
        "details": "See {IERC721-transferFrom}."
      }
    },
    "version": 1
  },
  "userdoc": {
    "kind": "user",
    "methods": {},
    "version": 1
  }
}